{
  "contractName": "auction",
  "abi": [
    {
      "inputs": [],
      "stateMutability": "nonpayable",
      "type": "constructor"
    },
    {
      "anonymous": false,
      "inputs": [
        {
          "indexed": true,
          "internalType": "address",
          "name": "owner",
          "type": "address"
        },
        {
          "indexed": true,
          "internalType": "address",
          "name": "approved",
          "type": "address"
        },
        {
          "indexed": true,
          "internalType": "uint256",
          "name": "tokenId",
          "type": "uint256"
        }
      ],
      "name": "Approval",
      "type": "event"
    },
    {
      "anonymous": false,
      "inputs": [
        {
          "indexed": true,
          "internalType": "address",
          "name": "owner",
          "type": "address"
        },
        {
          "indexed": true,
          "internalType": "address",
          "name": "operator",
          "type": "address"
        },
        {
          "indexed": false,
          "internalType": "bool",
          "name": "approved",
          "type": "bool"
        }
      ],
      "name": "ApprovalForAll",
      "type": "event"
    },
    {
      "anonymous": false,
      "inputs": [
        {
          "indexed": true,
          "internalType": "address",
          "name": "from",
          "type": "address"
        },
        {
          "indexed": true,
          "internalType": "address",
          "name": "to",
          "type": "address"
        },
        {
          "indexed": true,
          "internalType": "uint256",
          "name": "tokenId",
          "type": "uint256"
        }
      ],
      "name": "Transfer",
      "type": "event"
    },
    {
      "inputs": [
        {
          "internalType": "address",
          "name": "to",
          "type": "address"
        },
        {
          "internalType": "uint256",
          "name": "tokenId",
          "type": "uint256"
        }
      ],
      "name": "approve",
      "outputs": [],
      "stateMutability": "nonpayable",
      "type": "function"
    },
    {
      "inputs": [
        {
          "internalType": "address",
          "name": "owner",
          "type": "address"
        }
      ],
      "name": "balanceOf",
      "outputs": [
        {
          "internalType": "uint256",
          "name": "",
          "type": "uint256"
        }
      ],
      "stateMutability": "view",
      "type": "function",
      "constant": true
    },
    {
      "inputs": [
        {
          "internalType": "uint256",
          "name": "",
          "type": "uint256"
        }
      ],
      "name": "characters",
      "outputs": [
        {
          "internalType": "uint256",
          "name": "id",
          "type": "uint256"
        },
        {
          "internalType": "string",
          "name": "name",
          "type": "string"
        },
        {
          "internalType": "string",
          "name": "imgurl",
          "type": "string"
        },
        {
          "internalType": "uint256",
          "name": "magic",
          "type": "uint256"
        },
        {
          "internalType": "uint256",
          "name": "strength",
          "type": "uint256"
        },
        {
          "internalType": "uint256",
          "name": "intelligence",
          "type": "uint256"
        },
        {
          "internalType": "uint256",
          "name": "luck",
          "type": "uint256"
        },
        {
          "internalType": "uint256",
          "name": "level",
          "type": "uint256"
        },
        {
          "internalType": "bool",
          "name": "onsale",
          "type": "bool"
        },
        {
          "internalType": "uint256",
          "name": "startprice",
          "type": "uint256"
        },
        {
          "internalType": "bool",
          "name": "setaside",
          "type": "bool"
        },
        {
          "internalType": "uint256",
          "name": "endtime",
          "type": "uint256"
        }
      ],
      "stateMutability": "view",
      "type": "function",
      "constant": true
    },
    {
      "inputs": [],
      "name": "gameOwner",
      "outputs": [
        {
          "internalType": "address",
          "name": "",
          "type": "address"
        }
      ],
      "stateMutability": "view",
      "type": "function",
      "constant": true
    },
    {
      "inputs": [
        {
          "internalType": "uint256",
          "name": "tokenId",
          "type": "uint256"
        }
      ],
      "name": "getApproved",
      "outputs": [
        {
          "internalType": "address",
          "name": "",
          "type": "address"
        }
      ],
      "stateMutability": "view",
      "type": "function",
      "constant": true
    },
    {
      "inputs": [
        {
          "internalType": "address",
          "name": "owner",
          "type": "address"
        },
        {
          "internalType": "address",
          "name": "operator",
          "type": "address"
        }
      ],
      "name": "isApprovedForAll",
      "outputs": [
        {
          "internalType": "bool",
          "name": "",
          "type": "bool"
        }
      ],
      "stateMutability": "view",
      "type": "function",
      "constant": true
    },
    {
      "inputs": [],
      "name": "name",
      "outputs": [
        {
          "internalType": "string",
          "name": "",
          "type": "string"
        }
      ],
      "stateMutability": "view",
      "type": "function",
      "constant": true
    },
    {
      "inputs": [
        {
          "internalType": "uint256",
          "name": "tokenId",
          "type": "uint256"
        }
      ],
      "name": "ownerOf",
      "outputs": [
        {
          "internalType": "address",
          "name": "",
          "type": "address"
        }
      ],
      "stateMutability": "view",
      "type": "function",
      "constant": true
    },
    {
      "inputs": [
        {
          "internalType": "uint256",
          "name": "",
          "type": "uint256"
        }
      ],
      "name": "result",
      "outputs": [
        {
          "internalType": "uint256",
          "name": "id",
          "type": "uint256"
        },
        {
          "internalType": "string",
          "name": "name",
          "type": "string"
        },
        {
          "internalType": "string",
          "name": "imgurl",
          "type": "string"
        },
        {
          "internalType": "uint256",
          "name": "magic",
          "type": "uint256"
        },
        {
          "internalType": "uint256",
          "name": "strength",
          "type": "uint256"
        },
        {
          "internalType": "uint256",
          "name": "intelligence",
          "type": "uint256"
        },
        {
          "internalType": "uint256",
          "name": "luck",
          "type": "uint256"
        },
        {
          "internalType": "uint256",
          "name": "level",
          "type": "uint256"
        },
        {
          "internalType": "bool",
          "name": "onsale",
          "type": "bool"
        },
        {
          "internalType": "uint256",
          "name": "startprice",
          "type": "uint256"
        },
        {
          "internalType": "bool",
          "name": "setaside",
          "type": "bool"
        },
        {
          "internalType": "uint256",
          "name": "endtime",
          "type": "uint256"
        }
      ],
      "stateMutability": "view",
      "type": "function",
      "constant": true
    },
    {
      "inputs": [
        {
          "internalType": "address",
          "name": "from",
          "type": "address"
        },
        {
          "internalType": "address",
          "name": "to",
          "type": "address"
        },
        {
          "internalType": "uint256",
          "name": "tokenId",
          "type": "uint256"
        }
      ],
      "name": "safeTransferFrom",
      "outputs": [],
      "stateMutability": "nonpayable",
      "type": "function"
    },
    {
      "inputs": [
        {
          "internalType": "address",
          "name": "from",
          "type": "address"
        },
        {
          "internalType": "address",
          "name": "to",
          "type": "address"
        },
        {
          "internalType": "uint256",
          "name": "tokenId",
          "type": "uint256"
        },
        {
          "internalType": "bytes",
          "name": "_data",
          "type": "bytes"
        }
      ],
      "name": "safeTransferFrom",
      "outputs": [],
      "stateMutability": "nonpayable",
      "type": "function"
    },
    {
      "inputs": [
        {
          "internalType": "address",
          "name": "operator",
          "type": "address"
        },
        {
          "internalType": "bool",
          "name": "approved",
          "type": "bool"
        }
      ],
      "name": "setApprovalForAll",
      "outputs": [],
      "stateMutability": "nonpayable",
      "type": "function"
    },
    {
      "inputs": [
        {
          "internalType": "bytes4",
          "name": "interfaceId",
          "type": "bytes4"
        }
      ],
      "name": "supportsInterface",
      "outputs": [
        {
          "internalType": "bool",
          "name": "",
          "type": "bool"
        }
      ],
      "stateMutability": "view",
      "type": "function",
      "constant": true
    },
    {
      "inputs": [],
      "name": "symbol",
      "outputs": [
        {
          "internalType": "string",
          "name": "",
          "type": "string"
        }
      ],
      "stateMutability": "view",
      "type": "function",
      "constant": true
    },
    {
      "inputs": [
        {
          "internalType": "uint256",
          "name": "",
          "type": "uint256"
        }
      ],
      "name": "temp",
      "outputs": [
        {
          "internalType": "address",
          "name": "",
          "type": "address"
        }
      ],
      "stateMutability": "view",
      "type": "function",
      "constant": true
    },
    {
      "inputs": [
        {
          "internalType": "uint256",
          "name": "tokenId",
          "type": "uint256"
        }
      ],
      "name": "tokenURI",
      "outputs": [
        {
          "internalType": "string",
          "name": "",
          "type": "string"
        }
      ],
      "stateMutability": "view",
      "type": "function",
      "constant": true
    },
    {
      "inputs": [
        {
          "internalType": "address",
          "name": "from",
          "type": "address"
        },
        {
          "internalType": "address",
          "name": "to",
          "type": "address"
        },
        {
          "internalType": "uint256",
          "name": "tokenId",
          "type": "uint256"
        }
      ],
      "name": "transferFrom",
      "outputs": [],
      "stateMutability": "nonpayable",
      "type": "function"
    },
    {
      "inputs": [
        {
          "internalType": "string",
          "name": "_name",
          "type": "string"
        },
        {
          "internalType": "string",
          "name": "_imgurl",
          "type": "string"
        },
        {
          "internalType": "uint256",
          "name": "_magic",
          "type": "uint256"
        },
        {
          "internalType": "uint256",
          "name": "_strength",
          "type": "uint256"
        },
        {
          "internalType": "uint256",
          "name": "_intelligence",
          "type": "uint256"
        },
        {
          "internalType": "uint256",
          "name": "_luck",
          "type": "uint256"
        }
      ],
      "name": "createNewCharacter",
      "outputs": [],
      "stateMutability": "payable",
      "type": "function",
      "payable": true
    },
    {
      "inputs": [
        {
          "internalType": "address",
          "name": "_sender",
          "type": "address"
        }
      ],
      "name": "getCharacter",
      "outputs": [
        {
          "components": [
            {
              "internalType": "uint256",
              "name": "id",
              "type": "uint256"
            },
            {
              "internalType": "string",
              "name": "name",
              "type": "string"
            },
            {
              "internalType": "string",
              "name": "imgurl",
              "type": "string"
            },
            {
              "internalType": "uint256",
              "name": "magic",
              "type": "uint256"
            },
            {
              "internalType": "uint256",
              "name": "strength",
              "type": "uint256"
            },
            {
              "internalType": "uint256",
              "name": "intelligence",
              "type": "uint256"
            },
            {
              "internalType": "uint256",
              "name": "luck",
              "type": "uint256"
            },
            {
              "internalType": "uint256",
              "name": "level",
              "type": "uint256"
            },
            {
              "internalType": "address[]",
              "name": "ownerhistory",
              "type": "address[]"
            },
            {
              "internalType": "bool",
              "name": "onsale",
              "type": "bool"
            },
            {
              "internalType": "uint256",
              "name": "startprice",
              "type": "uint256"
            },
            {
              "internalType": "address[]",
              "name": "bidderhistory",
              "type": "address[]"
            },
            {
              "internalType": "uint256[]",
              "name": "bidpricehistory",
              "type": "uint256[]"
            },
            {
              "internalType": "bool",
              "name": "setaside",
              "type": "bool"
            },
            {
              "internalType": "uint256",
              "name": "endtime",
              "type": "uint256"
            }
          ],
          "internalType": "struct auction.Character[]",
          "name": "",
          "type": "tuple[]"
        }
      ],
      "stateMutability": "nonpayable",
      "type": "function"
    },
    {
      "inputs": [],
      "name": "getAuction",
      "outputs": [
        {
          "components": [
            {
              "internalType": "uint256",
              "name": "id",
              "type": "uint256"
            },
            {
              "internalType": "string",
              "name": "name",
              "type": "string"
            },
            {
              "internalType": "string",
              "name": "imgurl",
              "type": "string"
            },
            {
              "internalType": "uint256",
              "name": "magic",
              "type": "uint256"
            },
            {
              "internalType": "uint256",
              "name": "strength",
              "type": "uint256"
            },
            {
              "internalType": "uint256",
              "name": "intelligence",
              "type": "uint256"
            },
            {
              "internalType": "uint256",
              "name": "luck",
              "type": "uint256"
            },
            {
              "internalType": "uint256",
              "name": "level",
              "type": "uint256"
            },
            {
              "internalType": "address[]",
              "name": "ownerhistory",
              "type": "address[]"
            },
            {
              "internalType": "bool",
              "name": "onsale",
              "type": "bool"
            },
            {
              "internalType": "uint256",
              "name": "startprice",
              "type": "uint256"
            },
            {
              "internalType": "address[]",
              "name": "bidderhistory",
              "type": "address[]"
            },
            {
              "internalType": "uint256[]",
              "name": "bidpricehistory",
              "type": "uint256[]"
            },
            {
              "internalType": "bool",
              "name": "setaside",
              "type": "bool"
            },
            {
              "internalType": "uint256",
              "name": "endtime",
              "type": "uint256"
            }
          ],
          "internalType": "struct auction.Character[]",
          "name": "",
          "type": "tuple[]"
        }
      ],
      "stateMutability": "nonpayable",
      "type": "function"
    },
    {
      "inputs": [
        {
          "internalType": "uint256",
          "name": "_id",
          "type": "uint256"
        },
        {
          "internalType": "uint256",
          "name": "_sec",
          "type": "uint256"
        },
        {
          "internalType": "uint256",
          "name": "_startprice",
          "type": "uint256"
        }
      ],
      "name": "createNewAuction",
      "outputs": [],
      "stateMutability": "payable",
      "type": "function",
      "payable": true
    },
    {
      "inputs": [],
      "name": "refreshAllAuction",
      "outputs": [
        {
          "internalType": "uint256",
          "name": "",
          "type": "uint256"
        }
      ],
      "stateMutability": "payable",
      "type": "function",
      "payable": true
    },
    {
      "inputs": [
        {
          "internalType": "uint256",
          "name": "timestamp",
          "type": "uint256"
        }
      ],
      "name": "checkAllOverTime",
      "outputs": [],
      "stateMutability": "payable",
      "type": "function",
      "payable": true
    },
    {
      "inputs": [
        {
          "internalType": "uint256",
          "name": "_id",
          "type": "uint256"
        }
      ],
      "name": "ownerconfirm",
      "outputs": [],
      "stateMutability": "payable",
      "type": "function",
      "payable": true
    },
    {
      "inputs": [
        {
          "internalType": "uint256",
          "name": "_id",
          "type": "uint256"
        }
      ],
      "name": "buyerconfirm",
      "outputs": [],
      "stateMutability": "payable",
      "type": "function",
      "payable": true
    },
    {
      "inputs": [
        {
          "internalType": "uint256",
          "name": "_id",
          "type": "uint256"
        },
        {
          "internalType": "address",
          "name": "sender",
          "type": "address"
        }
      ],
      "name": "bid",
      "outputs": [],
      "stateMutability": "payable",
      "type": "function",
      "payable": true
    },
    {
      "inputs": [
        {
          "internalType": "address",
          "name": "_sender",
          "type": "address"
        }
      ],
      "name": "getbid",
      "outputs": [
        {
          "components": [
            {
              "internalType": "uint256",
              "name": "id",
              "type": "uint256"
            },
            {
              "internalType": "string",
              "name": "name",
              "type": "string"
            },
            {
              "internalType": "string",
              "name": "imgurl",
              "type": "string"
            },
            {
              "internalType": "uint256",
              "name": "magic",
              "type": "uint256"
            },
            {
              "internalType": "uint256",
              "name": "strength",
              "type": "uint256"
            },
            {
              "internalType": "uint256",
              "name": "intelligence",
              "type": "uint256"
            },
            {
              "internalType": "uint256",
              "name": "luck",
              "type": "uint256"
            },
            {
              "internalType": "uint256",
              "name": "level",
              "type": "uint256"
            },
            {
              "internalType": "address[]",
              "name": "ownerhistory",
              "type": "address[]"
            },
            {
              "internalType": "bool",
              "name": "onsale",
              "type": "bool"
            },
            {
              "internalType": "uint256",
              "name": "startprice",
              "type": "uint256"
            },
            {
              "internalType": "address[]",
              "name": "bidderhistory",
              "type": "address[]"
            },
            {
              "internalType": "uint256[]",
              "name": "bidpricehistory",
              "type": "uint256[]"
            },
            {
              "internalType": "bool",
              "name": "setaside",
              "type": "bool"
            },
            {
              "internalType": "uint256",
              "name": "endtime",
              "type": "uint256"
            }
          ],
          "internalType": "struct auction.Character[]",
          "name": "",
          "type": "tuple[]"
        }
      ],
      "stateMutability": "nonpayable",
      "type": "function"
    }
  ],
  "bytecode": "0x60806040523480156200001157600080fd5b506040518060400160405280600881526020017f47616d654974656d0000000000000000000000000000000000000000000000008152506040518060400160405280600381526020017f49544d0000000000000000000000000000000000000000000000000000000000815250816000908051906020019062000096929190620000f9565b508060019080519060200190620000af929190620000f9565b50505033600960006101000a81548173ffffffffffffffffffffffffffffffffffffffff021916908373ffffffffffffffffffffffffffffffffffffffff1602179055506200020e565b8280546200010790620001d8565b90600052602060002090601f0160209004810192826200012b576000855562000177565b82601f106200014657805160ff191683800117855562000177565b8280016001018555821562000177579182015b828111156200017657825182559160200191906001019062000159565b5b5090506200018691906200018a565b5090565b5b80821115620001a55760008160009055506001016200018b565b5090565b7f4e487b7100000000000000000000000000000000000000000000000000000000600052602260045260246000fd5b60006002820490506001821680620001f157607f821691505b60208210811415620002085762000207620001a9565b5b50919050565b615c98806200021e6000396000f3fe60806040526004361061019c5760003560e01c806370a08231116100ec578063a22cb4651161008a578063e985e9c511610064578063e985e9c5146105d2578063ebd0c91c1461060f578063f6b12f281461064c578063fe156f2a146106775761019c565b8063a22cb46514610543578063b88d4fde1461056c578063c87b56dd146105955761019c565b80638d29df7d116100c65780638d29df7d146104c457806395d89b41146104e05780639f04996d1461050b578063a02a9d12146105275761019c565b806370a08231146104405780637327df251461047d5780637cc9255f146104a85761019c565b806323b872dd116101595780634810bc59116101335780634810bc591461034157806353140cca146103895780636352211e146103c65780636c3755ad146104035761019c565b806323b872dd146102a75780633c594059146102d057806342842e0e146103185761019c565b806301ffc9a7146101a157806306fdde03146101de578063081812fc14610209578063095ea7b31461024657806312ba0a411461026f57806319440e281461028b575b600080fd5b3480156101ad57600080fd5b506101c860048036038101906101c391906144e8565b610695565b6040516101d59190614530565b60405180910390f35b3480156101ea57600080fd5b506101f3610777565b60405161020091906145e4565b60405180910390f35b34801561021557600080fd5b50610230600480360381019061022b919061463c565b610809565b60405161023d91906146aa565b60405180910390f35b34801561025257600080fd5b5061026d600480360381019061026891906146f1565b61088e565b005b61028960048036038101906102849190614731565b6109a6565b005b6102a560048036038101906102a091906148b9565b610b22565b005b3480156102b357600080fd5b506102ce60048036038101906102c9919061497e565b610e10565b005b3480156102dc57600080fd5b506102f760048036038101906102f2919061463c565b610e70565b60405161030f9c9b9a999897969594939291906149e0565b60405180910390f35b34801561032457600080fd5b5061033f600480360381019061033a919061497e565b61100a565b005b34801561034d57600080fd5b506103686004803603810190610363919061463c565b61102a565b6040516103809c9b9a999897969594939291906149e0565b60405180910390f35b34801561039557600080fd5b506103b060048036038101906103ab9190614aa8565b6111c4565b6040516103bd9190614ecb565b60405180910390f35b3480156103d257600080fd5b506103ed60048036038101906103e8919061463c565b611856565b6040516103fa91906146aa565b60405180910390f35b34801561040f57600080fd5b5061042a6004803603810190610425919061463c565b611908565b60405161043791906146aa565b60405180910390f35b34801561044c57600080fd5b5061046760048036038101906104629190614aa8565b611947565b6040516104749190614eed565b60405180910390f35b34801561048957600080fd5b506104926119ff565b60405161049f9190614ecb565b60405180910390f35b6104c260048036038101906104bd919061463c565b611f6d565b005b6104de60048036038101906104d9919061463c565b61212d565b005b3480156104ec57600080fd5b506104f5612460565b60405161050291906145e4565b60405180910390f35b61052560048036038101906105209190614f08565b6124f2565b005b610541600480360381019061053c919061463c565b6128bc565b005b34801561054f57600080fd5b5061056a60048036038101906105659190614f74565b612bf2565b005b34801561057857600080fd5b50610593600480360381019061058e9190615055565b612d73565b005b3480156105a157600080fd5b506105bc60048036038101906105b7919061463c565b612dd5565b6040516105c991906145e4565b60405180910390f35b3480156105de57600080fd5b506105f960048036038101906105f491906150d8565b612e7c565b6040516106069190614530565b60405180910390f35b34801561061b57600080fd5b5061063660048036038101906106319190614aa8565b612f10565b6040516106439190614ecb565b60405180910390f35b34801561065857600080fd5b5061066161347d565b60405161066e91906146aa565b60405180910390f35b61067f6134a3565b60405161068c9190614eed565b60405180910390f35b60007f80ac58cd000000000000000000000000000000000000000000000000000000007bffffffffffffffffffffffffffffffffffffffffffffffffffffffff1916827bffffffffffffffffffffffffffffffffffffffffffffffffffffffff1916148061076057507f5b5e139f000000000000000000000000000000000000000000000000000000007bffffffffffffffffffffffffffffffffffffffffffffffffffffffff1916827bffffffffffffffffffffffffffffffffffffffffffffffffffffffff1916145b80610770575061076f826135c1565b5b9050919050565b60606000805461078690615147565b80601f01602080910402602001604051908101604052809291908181526020018280546107b290615147565b80156107ff5780601f106107d4576101008083540402835291602001916107ff565b820191906000526020600020905b8154815290600101906020018083116107e257829003601f168201915b5050505050905090565b60006108148261362b565b610853576040517f08c379a000000000000000000000000000000000000000000000000000000000815260040161084a906151eb565b60405180910390fd5b6004600083815260200190815260200160002060009054906101000a900473ffffffffffffffffffffffffffffffffffffffff169050919050565b600061089982611856565b90508073ffffffffffffffffffffffffffffffffffffffff168373ffffffffffffffffffffffffffffffffffffffff16141561090a576040517f08c379a00000000000000000000000000000000000000000000000000000000081526004016109019061527d565b60405180910390fd5b8073ffffffffffffffffffffffffffffffffffffffff16610929613697565b73ffffffffffffffffffffffffffffffffffffffff161480610958575061095781610952613697565b612e7c565b5b610997576040517f08c379a000000000000000000000000000000000000000000000000000000000815260040161098e9061530f565b60405180910390fd5b6109a1838361369f565b505050565b67016345785d8a000034146109ba57600080fd5b6109c383611856565b73ffffffffffffffffffffffffffffffffffffffff163373ffffffffffffffffffffffffffffffffffffffff16146109fa57600080fd5b6000151560068481548110610a1257610a1161532f565b5b90600052602060002090600f020160090160009054906101000a900460ff16151514610a3d57600080fd5b6000151560068481548110610a5557610a5461532f565b5b90600052602060002090600f0201600d0160009054906101000a900460ff16151514610a8057600080fd5b600160068481548110610a9657610a9561532f565b5b90600052602060002090600f020160090160006101000a81548160ff0219169083151502179055508142610aca919061538d565b60068481548110610ade57610add61532f565b5b90600052602060002090600f0201600e01819055508060068481548110610b0857610b0761532f565b5b90600052602060002090600f0201600a0181905550505050565b67016345785d8a00003414610b3657600080fd5b6000600680549050905060086000610b4e919061405c565b6008339080600181540180825580915050600190039060005260206000200160009091909190916101000a81548173ffffffffffffffffffffffffffffffffffffffff021916908373ffffffffffffffffffffffffffffffffffffffff1602179055506060806006604051806101e001604052808581526020018b81526020018a8152602001898152602001888152602001878152602001868152602001600181526020016008805480602002602001604051908101604052809291908181526020018280548015610c7557602002820191906000526020600020905b8160009054906101000a900473ffffffffffffffffffffffffffffffffffffffff1673ffffffffffffffffffffffffffffffffffffffff1681526020019060010190808311610c2b575b50505050508152602001600015158152602001600081526020018481526020018381526020016000151581526020014281525090806001815401808255809150506001900390600052602060002090600f0201600090919091909150600082015181600001556020820151816001019080519060200190610cf792919061407d565b506040820151816002019080519060200190610d1492919061407d565b50606082015181600301556080820151816004015560a0820151816005015560c0820151816006015560e08201518160070155610100820151816008019080519060200190610d64929190614103565b506101208201518160090160006101000a81548160ff02191690831515021790555061014082015181600a015561016082015181600b019080519060200190610dae929190614103565b5061018082015181600c019080519060200190610dcc92919061418d565b506101a082015181600d0160006101000a81548160ff0219169083151502179055506101c082015181600e01555050610e053384613758565b505050505050505050565b610e21610e1b613697565b82613776565b610e60576040517f08c379a0000000000000000000000000000000000000000000000000000000008152600401610e5790615455565b60405180910390fd5b610e6b838383613854565b505050565b60078181548110610e8057600080fd5b90600052602060002090600f0201600091509050806000015490806001018054610ea990615147565b80601f0160208091040260200160405190810160405280929190818152602001828054610ed590615147565b8015610f225780601f10610ef757610100808354040283529160200191610f22565b820191906000526020600020905b815481529060010190602001808311610f0557829003601f168201915b505050505090806002018054610f3790615147565b80601f0160208091040260200160405190810160405280929190818152602001828054610f6390615147565b8015610fb05780601f10610f8557610100808354040283529160200191610fb0565b820191906000526020600020905b815481529060010190602001808311610f9357829003601f168201915b5050505050908060030154908060040154908060050154908060060154908060070154908060090160009054906101000a900460ff169080600a01549080600d0160009054906101000a900460ff169080600e015490508c565b61102583838360405180602001604052806000815250612d73565b505050565b6006818154811061103a57600080fd5b90600052602060002090600f020160009150905080600001549080600101805461106390615147565b80601f016020809104026020016040519081016040528092919081815260200182805461108f90615147565b80156110dc5780601f106110b1576101008083540402835291602001916110dc565b820191906000526020600020905b8154815290600101906020018083116110bf57829003601f168201915b5050505050908060020180546110f190615147565b80601f016020809104026020016040519081016040528092919081815260200182805461111d90615147565b801561116a5780601f1061113f5761010080835404028352916020019161116a565b820191906000526020600020905b81548152906001019060200180831161114d57829003601f168201915b5050505050908060030154908060040154908060050154908060060154908060070154908060090160009054906101000a900460ff169080600a01549080600d0160009054906101000a900460ff169080600e015490508c565b6060600760006111d491906141da565b60005b6006805490508110156114d75760011515600682815481106111fc576111fb61532f565b5b90600052602060002090600f020160090160009054906101000a900460ff161515148061125f5750600115156006828154811061123c5761123b61532f565b5b90600052602060002090600f0201600d0160009054906101000a900460ff161515145b156114c45760005b6006828154811061127b5761127a61532f565b5b90600052602060002090600f0201600b01805490508110156114c2578373ffffffffffffffffffffffffffffffffffffffff16600683815481106112c2576112c161532f565b5b90600052602060002090600f0201600b0182815481106112e5576112e461532f565b5b9060005260206000200160009054906101000a900473ffffffffffffffffffffffffffffffffffffffff1673ffffffffffffffffffffffffffffffffffffffff1614156114af576007600683815481106113425761134161532f565b5b90600052602060002090600f020190806001815401808255809150506001900390600052602060002090600f020160009091909190915060008201548160000155600182018160010190805461139790615147565b6113a29291906141fe565b5060028201816002019080546113b790615147565b6113c29291906141fe565b506003820154816003015560048201548160040155600582015481600501556006820154816006015560078201548160070155600882018160080190805461140b92919061428b565b506009820160009054906101000a900460ff168160090160006101000a81548160ff021916908315150217905550600a82015481600a0155600b820181600b0190805461145992919061428b565b50600c820181600c019080546114709291906142dd565b50600d820160009054906101000a900460ff1681600d0160006101000a81548160ff021916908315150217905550600e82015481600e015550506114c2565b80806114ba90615475565b915050611267565b505b80806114cf90615475565b9150506111d7565b506007805480602002602001604051908101604052809291908181526020016000905b8282101561184b57838290600052602060002090600f0201604051806101e00160405290816000820154815260200160018201805461153890615147565b80601f016020809104026020016040519081016040528092919081815260200182805461156490615147565b80156115b15780601f10611586576101008083540402835291602001916115b1565b820191906000526020600020905b81548152906001019060200180831161159457829003601f168201915b505050505081526020016002820180546115ca90615147565b80601f01602080910402602001604051908101604052809291908181526020018280546115f690615147565b80156116435780601f1061161857610100808354040283529160200191611643565b820191906000526020600020905b81548152906001019060200180831161162657829003601f168201915b5050505050815260200160038201548152602001600482015481526020016005820154815260200160068201548152602001600782015481526020016008820180548060200260200160405190810160405280929190818152602001828054801561170357602002820191906000526020600020905b8160009054906101000a900473ffffffffffffffffffffffffffffffffffffffff1673ffffffffffffffffffffffffffffffffffffffff16815260200190600101908083116116b9575b505050505081526020016009820160009054906101000a900460ff16151515158152602001600a8201548152602001600b82018054806020026020016040519081016040528092919081815260200182805480156117b657602002820191906000526020600020905b8160009054906101000a900473ffffffffffffffffffffffffffffffffffffffff1673ffffffffffffffffffffffffffffffffffffffff168152602001906001019080831161176c575b50505050508152602001600c820180548060200260200160405190810160405280929190818152602001828054801561180e57602002820191906000526020600020905b8154815260200190600101908083116117fa575b50505050508152602001600d820160009054906101000a900460ff16151515158152602001600e82015481525050815260200190600101906114fa565b505050509050919050565b6000806002600084815260200190815260200160002060009054906101000a900473ffffffffffffffffffffffffffffffffffffffff169050600073ffffffffffffffffffffffffffffffffffffffff168173ffffffffffffffffffffffffffffffffffffffff1614156118ff576040517f08c379a00000000000000000000000000000000000000000000000000000000081526004016118f690615530565b60405180910390fd5b80915050919050565b6008818154811061191857600080fd5b906000526020600020016000915054906101000a900473ffffffffffffffffffffffffffffffffffffffff1681565b60008073ffffffffffffffffffffffffffffffffffffffff168273ffffffffffffffffffffffffffffffffffffffff1614156119b8576040517f08c379a00000000000000000000000000000000000000000000000000000000081526004016119af906155c2565b60405180910390fd5b600360008373ffffffffffffffffffffffffffffffffffffffff1673ffffffffffffffffffffffffffffffffffffffff168152602001908152602001600020549050919050565b606060076000611a0f91906141da565b60005b600680549050811015611bf0576001151560068281548110611a3757611a3661532f565b5b90600052602060002090600f020160090160009054906101000a900460ff1615151415611bdd57600760068281548110611a7457611a7361532f565b5b90600052602060002090600f020190806001815401808255809150506001900390600052602060002090600f0201600090919091909150600082015481600001556001820181600101908054611ac990615147565b611ad49291906141fe565b506002820181600201908054611ae990615147565b611af49291906141fe565b5060038201548160030155600482015481600401556005820154816005015560068201548160060155600782015481600701556008820181600801908054611b3d92919061428b565b506009820160009054906101000a900460ff168160090160006101000a81548160ff021916908315150217905550600a82015481600a0155600b820181600b01908054611b8b92919061428b565b50600c820181600c01908054611ba29291906142dd565b50600d820160009054906101000a900460ff1681600d0160006101000a81548160ff021916908315150217905550600e82015481600e015550505b8080611be890615475565b915050611a12565b506007805480602002602001604051908101604052809291908181526020016000905b82821015611f6457838290600052602060002090600f0201604051806101e001604052908160008201548152602001600182018054611c5190615147565b80601f0160208091040260200160405190810160405280929190818152602001828054611c7d90615147565b8015611cca5780601f10611c9f57610100808354040283529160200191611cca565b820191906000526020600020905b815481529060010190602001808311611cad57829003601f168201915b50505050508152602001600282018054611ce390615147565b80601f0160208091040260200160405190810160405280929190818152602001828054611d0f90615147565b8015611d5c5780601f10611d3157610100808354040283529160200191611d5c565b820191906000526020600020905b815481529060010190602001808311611d3f57829003601f168201915b50505050508152602001600382015481526020016004820154815260200160058201548152602001600682015481526020016007820154815260200160088201805480602002602001604051908101604052809291908181526020018280548015611e1c57602002820191906000526020600020905b8160009054906101000a900473ffffffffffffffffffffffffffffffffffffffff1673ffffffffffffffffffffffffffffffffffffffff1681526020019060010190808311611dd2575b505050505081526020016009820160009054906101000a900460ff16151515158152602001600a8201548152602001600b8201805480602002602001604051908101604052809291908181526020018280548015611ecf57602002820191906000526020600020905b8160009054906101000a900473ffffffffffffffffffffffffffffffffffffffff1673ffffffffffffffffffffffffffffffffffffffff1681526020019060010190808311611e85575b50505050508152602001600c8201805480602002602001604051908101604052809291908181526020018280548015611f2757602002820191906000526020600020905b815481526020019060010190808311611f13575b50505050508152602001600d820160009054906101000a900460ff16151515158152602001600e8201548152505081526020019060010190611c13565b50505050905090565b6001151560068281548110611f8557611f8461532f565b5b90600052602060002090600f0201600d0160009054906101000a900460ff16151514611fb057600080fd5b611fb981611856565b73ffffffffffffffffffffffffffffffffffffffff163373ffffffffffffffffffffffffffffffffffffffff161415611ff157600080fd5b612004611ffd82611856565b3383610e10565b60006006828154811061201a5761201961532f565b5b90600052602060002090600f0201600d0160006101000a81548160ff021916908315150217905550600681815481106120565761205561532f565b5b90600052602060002090600f0201600c016000612073919061432f565b600681815481106120875761208661532f565b5b90600052602060002090600f0201600801339080600181540180825580915050600190039060005260206000200160009091909190916101000a81548173ffffffffffffffffffffffffffffffffffffffff021916908373ffffffffffffffffffffffffffffffffffffffff1602179055506006818154811061210d5761210c61532f565b5b90600052602060002090600f0201600b01600061212a919061405c565b50565b60005b60068054905081101561245c5760011515600682815481106121555761215461532f565b5b90600052602060002090600f0201600d0160009054906101000a900460ff161515141561244957620d2f00600682815481106121945761219361532f565b5b90600052602060002090600f0201600e01546121b0919061538d565b8210612448576000600682815481106121cc576121cb61532f565b5b90600052602060002090600f0201600b0180549050905060008114156122915760068281548110612200576121ff61532f565b5b90600052602060002090600f0201600b01600061221d919061405c565b600682815481106122315761223061532f565b5b90600052602060002090600f0201600c01600061224e919061432f565b6000600683815481106122645761226361532f565b5b90600052602060002090600f0201600d0160006101000a81548160ff021916908315150217905550612446565b60018161229e91906155e2565b90506000600683815481106122b6576122b561532f565b5b90600052602060002090600f0201600b0182815481106122d9576122d861532f565b5b9060005260206000200160009054906101000a900473ffffffffffffffffffffffffffffffffffffffff169050612310818461088e565b6000600684815481106123265761232561532f565b5b90600052602060002090600f0201600c0183815481106123495761234861532f565b5b9060005260206000200154905060003390508073ffffffffffffffffffffffffffffffffffffffff166108fc839081150290604051600060405180830381858888f193505050501580156123a1573d6000803e3d6000fd5b50600685815481106123b6576123b561532f565b5b90600052602060002090600f0201600b0160006123d3919061405c565b600685815481106123e7576123e661532f565b5b90600052602060002090600f0201600c016000612404919061432f565b60006006868154811061241a5761241961532f565b5b90600052602060002090600f0201600d0160006101000a81548160ff0219169083151502179055505050505b505b5b808061245490615475565b915050612130565b5050565b60606001805461246f90615147565b80601f016020809104026020016040519081016040528092919081815260200182805461249b90615147565b80156124e85780601f106124bd576101008083540402835291602001916124e8565b820191906000526020600020905b8154815290600101906020018083116124cb57829003601f168201915b5050505050905090565b6124fb82611856565b73ffffffffffffffffffffffffffffffffffffffff163373ffffffffffffffffffffffffffffffffffffffff16141561253357600080fd5b6001600683815481106125495761254861532f565b5b90600052602060002090600f020160090160006101000a81548160ff021916908315150217905561257957600080fd5b60006006838154811061258f5761258e61532f565b5b90600052602060002090600f0201600b018054905014156126a057600682815481106125be576125bd61532f565b5b90600052602060002090600f0201600b01339080600181540180825580915050600190039060005260206000200160009091909190916101000a81548173ffffffffffffffffffffffffffffffffffffffff021916908373ffffffffffffffffffffffffffffffffffffffff160217905550600682815481106126445761264361532f565b5b90600052602060002090600f0201600c01670de0b6b3a764000034606461266b9190615616565b612675919061569f565b90806001815401808255809150506001900390600052602060002001600090919091909150556128b8565b6000600683815481106126b6576126b561532f565b5b90600052602060002090600f0201600b018054905090506001816126da91906155e2565b9050600683815481106126f0576126ef61532f565b5b90600052602060002090600f0201600b0181815481106127135761271261532f565b5b9060005260206000200160009054906101000a900473ffffffffffffffffffffffffffffffffffffffff1673ffffffffffffffffffffffffffffffffffffffff166108fc6006858154811061276b5761276a61532f565b5b90600052602060002090600f0201600c01838154811061278e5761278d61532f565b5b90600052602060002001549081150290604051600060405180830381858888f193505050501580156127c4573d6000803e3d6000fd5b50600683815481106127d9576127d861532f565b5b90600052602060002090600f0201600b01339080600181540180825580915050600190039060005260206000200160009091909190916101000a81548173ffffffffffffffffffffffffffffffffffffffff021916908373ffffffffffffffffffffffffffffffffffffffff1602179055506006838154811061285f5761285e61532f565b5b90600052602060002090600f0201600c01670de0b6b3a76400003460646128869190615616565b612890919061569f565b9080600181540180825580915050600190039060005260206000200160009091909190915055505b5050565b60011515600682815481106128d4576128d361532f565b5b90600052602060002090600f0201600d0160009054906101000a900460ff161515146128ff57600080fd5b61290881611856565b73ffffffffffffffffffffffffffffffffffffffff163373ffffffffffffffffffffffffffffffffffffffff161461293f57600080fd5b6000600682815481106129555761295461532f565b5b90600052602060002090600f0201600b018054905090506000811415612a1a57600682815481106129895761298861532f565b5b90600052602060002090600f0201600b0160006129a6919061405c565b600682815481106129ba576129b961532f565b5b90600052602060002090600f0201600c0160006129d7919061432f565b6000600683815481106129ed576129ec61532f565b5b90600052602060002090600f0201600d0160006101000a81548160ff021916908315150217905550612bee565b600181612a2791906155e2565b90506000811015612a3757600080fd5b600060068381548110612a4d57612a4c61532f565b5b90600052602060002090600f0201600b018281548110612a7057612a6f61532f565b5b9060005260206000200160009054906101000a900473ffffffffffffffffffffffffffffffffffffffff169050612aa7818461088e565b600060068481548110612abd57612abc61532f565b5b90600052602060002090600f0201600c018381548110612ae057612adf61532f565b5b9060005260206000200154905060003390506000612710605a84612b049190615616565b612b0e919061569f565b90506000606460018386612b2291906155e2565b612b2c9190615616565b612b36919061569f565b90508273ffffffffffffffffffffffffffffffffffffffff166108fc839081150290604051600060405180830381858888f19350505050158015612b7e573d6000803e3d6000fd5b50600960009054906101000a900473ffffffffffffffffffffffffffffffffffffffff1673ffffffffffffffffffffffffffffffffffffffff166108fc829081150290604051600060405180830381858888f19350505050158015612be7573d6000803e3d6000fd5b5050505050505b5050565b612bfa613697565b73ffffffffffffffffffffffffffffffffffffffff168273ffffffffffffffffffffffffffffffffffffffff161415612c68576040517f08c379a0000000000000000000000000000000000000000000000000000000008152600401612c5f9061571c565b60405180910390fd5b8060056000612c75613697565b73ffffffffffffffffffffffffffffffffffffffff1673ffffffffffffffffffffffffffffffffffffffff16815260200190815260200160002060008473ffffffffffffffffffffffffffffffffffffffff1673ffffffffffffffffffffffffffffffffffffffff16815260200190815260200160002060006101000a81548160ff0219169083151502179055508173ffffffffffffffffffffffffffffffffffffffff16612d22613697565b73ffffffffffffffffffffffffffffffffffffffff167f17307eab39ab6107e8899845ad3d59bd9653f200f220920489ca2b5937696c3183604051612d679190614530565b60405180910390a35050565b612d84612d7e613697565b83613776565b612dc3576040517f08c379a0000000000000000000000000000000000000000000000000000000008152600401612dba90615455565b60405180910390fd5b612dcf84848484613ab0565b50505050565b6060612de08261362b565b612e1f576040517f08c379a0000000000000000000000000000000000000000000000000000000008152600401612e16906157ae565b60405180910390fd5b6000612e29613b0c565b90506000815111612e495760405180602001604052806000815250612e74565b80612e5384613b23565b604051602001612e6492919061580a565b6040516020818303038152906040525b915050919050565b6000600560008473ffffffffffffffffffffffffffffffffffffffff1673ffffffffffffffffffffffffffffffffffffffff16815260200190815260200160002060008373ffffffffffffffffffffffffffffffffffffffff1673ffffffffffffffffffffffffffffffffffffffff16815260200190815260200160002060009054906101000a900460ff16905092915050565b606060076000612f2091906141da565b60005b6006805490508110156130fe578273ffffffffffffffffffffffffffffffffffffffff16612f5082611856565b73ffffffffffffffffffffffffffffffffffffffff1614156130eb57600760068281548110612f8257612f8161532f565b5b90600052602060002090600f020190806001815401808255809150506001900390600052602060002090600f0201600090919091909150600082015481600001556001820181600101908054612fd790615147565b612fe29291906141fe565b506002820181600201908054612ff790615147565b6130029291906141fe565b506003820154816003015560048201548160040155600582015481600501556006820154816006015560078201548160070155600882018160080190805461304b92919061428b565b506009820160009054906101000a900460ff168160090160006101000a81548160ff021916908315150217905550600a82015481600a0155600b820181600b0190805461309992919061428b565b50600c820181600c019080546130b09291906142dd565b50600d820160009054906101000a900460ff1681600d0160006101000a81548160ff021916908315150217905550600e82015481600e015550505b80806130f690615475565b915050612f23565b506007805480602002602001604051908101604052809291908181526020016000905b8282101561347257838290600052602060002090600f0201604051806101e00160405290816000820154815260200160018201805461315f90615147565b80601f016020809104026020016040519081016040528092919081815260200182805461318b90615147565b80156131d85780601f106131ad576101008083540402835291602001916131d8565b820191906000526020600020905b8154815290600101906020018083116131bb57829003601f168201915b505050505081526020016002820180546131f190615147565b80601f016020809104026020016040519081016040528092919081815260200182805461321d90615147565b801561326a5780601f1061323f5761010080835404028352916020019161326a565b820191906000526020600020905b81548152906001019060200180831161324d57829003601f168201915b5050505050815260200160038201548152602001600482015481526020016005820154815260200160068201548152602001600782015481526020016008820180548060200260200160405190810160405280929190818152602001828054801561332a57602002820191906000526020600020905b8160009054906101000a900473ffffffffffffffffffffffffffffffffffffffff1673ffffffffffffffffffffffffffffffffffffffff16815260200190600101908083116132e0575b505050505081526020016009820160009054906101000a900460ff16151515158152602001600a8201548152602001600b82018054806020026020016040519081016040528092919081815260200182805480156133dd57602002820191906000526020600020905b8160009054906101000a900473ffffffffffffffffffffffffffffffffffffffff1673ffffffffffffffffffffffffffffffffffffffff1681526020019060010190808311613393575b50505050508152602001600c820180548060200260200160405190810160405280929190818152602001828054801561343557602002820191906000526020600020905b815481526020019060010190808311613421575b50505050508152602001600d820160009054906101000a900460ff16151515158152602001600e8201548152505081526020019060010190613121565b505050509050919050565b600960009054906101000a900473ffffffffffffffffffffffffffffffffffffffff1681565b60006134ae4261212d565b60005b6006805490508110156135ba5760011515600682815481106134d6576134d561532f565b5b90600052602060002090600f020160090160009054906101000a900460ff16151514156135a75742600682815481106135125761351161532f565b5b90600052602060002090600f0201600e0154116135a65760006006828154811061353f5761353e61532f565b5b90600052602060002090600f020160090160006101000a81548160ff02191690831515021790555060016006828154811061357d5761357c61532f565b5b90600052602060002090600f0201600d0160006101000a81548160ff0219169083151502179055505b5b80806135b290615475565b9150506134b1565b5042905090565b60007f01ffc9a7000000000000000000000000000000000000000000000000000000007bffffffffffffffffffffffffffffffffffffffffffffffffffffffff1916827bffffffffffffffffffffffffffffffffffffffffffffffffffffffff1916149050919050565b60008073ffffffffffffffffffffffffffffffffffffffff166002600084815260200190815260200160002060009054906101000a900473ffffffffffffffffffffffffffffffffffffffff1673ffffffffffffffffffffffffffffffffffffffff1614159050919050565b600033905090565b816004600083815260200190815260200160002060006101000a81548173ffffffffffffffffffffffffffffffffffffffff021916908373ffffffffffffffffffffffffffffffffffffffff160217905550808273ffffffffffffffffffffffffffffffffffffffff1661371283611856565b73ffffffffffffffffffffffffffffffffffffffff167f8c5be1e5ebec7d5bd14f71427d1e84f3dd0314c0f7b2291e5b200ac8c7c3b92560405160405180910390a45050565b613772828260405180602001604052806000815250613c84565b5050565b60006137818261362b565b6137c0576040517f08c379a00000000000000000000000000000000000000000000000000000000081526004016137b7906158a0565b60405180910390fd5b60006137cb83611856565b90508073ffffffffffffffffffffffffffffffffffffffff168473ffffffffffffffffffffffffffffffffffffffff16148061383a57508373ffffffffffffffffffffffffffffffffffffffff1661382284610809565b73ffffffffffffffffffffffffffffffffffffffff16145b8061384b575061384a8185612e7c565b5b91505092915050565b8273ffffffffffffffffffffffffffffffffffffffff1661387482611856565b73ffffffffffffffffffffffffffffffffffffffff16146138ca576040517f08c379a00000000000000000000000000000000000000000000000000000000081526004016138c190615932565b60405180910390fd5b600073ffffffffffffffffffffffffffffffffffffffff168273ffffffffffffffffffffffffffffffffffffffff16141561393a576040517f08c379a0000000000000000000000000000000000000000000000000000000008152600401613931906159c4565b60405180910390fd5b613945838383613cdf565b61395060008261369f565b6001600360008573ffffffffffffffffffffffffffffffffffffffff1673ffffffffffffffffffffffffffffffffffffffff16815260200190815260200160002060008282546139a091906155e2565b925050819055506001600360008473ffffffffffffffffffffffffffffffffffffffff1673ffffffffffffffffffffffffffffffffffffffff16815260200190815260200160002060008282546139f7919061538d565b92505081905550816002600083815260200190815260200160002060006101000a81548173ffffffffffffffffffffffffffffffffffffffff021916908373ffffffffffffffffffffffffffffffffffffffff160217905550808273ffffffffffffffffffffffffffffffffffffffff168473ffffffffffffffffffffffffffffffffffffffff167fddf252ad1be2c89b69c2b068fc378daa952ba7f163c4a11628f55a4df523b3ef60405160405180910390a4505050565b613abb848484613854565b613ac784848484613ce4565b613b06576040517f08c379a0000000000000000000000000000000000000000000000000000000008152600401613afd90615a56565b60405180910390fd5b50505050565b606060405180602001604052806000815250905090565b60606000821415613b6b576040518060400160405280600181526020017f30000000000000000000000000000000000000000000000000000000000000008152509050613c7f565b600082905060005b60008214613b9d578080613b8690615475565b915050600a82613b96919061569f565b9150613b73565b60008167ffffffffffffffff811115613bb957613bb861478e565b5b6040519080825280601f01601f191660200182016040528015613beb5781602001600182028036833780820191505090505b5090505b60008514613c7857600182613c0491906155e2565b9150600a85613c139190615a76565b6030613c1f919061538d565b60f81b818381518110613c3557613c3461532f565b5b60200101907effffffffffffffffffffffffffffffffffffffffffffffffffffffffffffff1916908160001a905350600a85613c71919061569f565b9450613bef565b8093505050505b919050565b613c8e8383613e7b565b613c9b6000848484613ce4565b613cda576040517f08c379a0000000000000000000000000000000000000000000000000000000008152600401613cd190615a56565b60405180910390fd5b505050565b505050565b6000613d058473ffffffffffffffffffffffffffffffffffffffff16614049565b15613e6e578373ffffffffffffffffffffffffffffffffffffffff1663150b7a02613d2e613697565b8786866040518563ffffffff1660e01b8152600401613d509493929190615afc565b602060405180830381600087803b158015613d6a57600080fd5b505af1925050508015613d9b57506040513d601f19601f82011682018060405250810190613d989190615b5d565b60015b613e1e573d8060008114613dcb576040519150601f19603f3d011682016040523d82523d6000602084013e613dd0565b606091505b50600081511415613e16576040517f08c379a0000000000000000000000000000000000000000000000000000000008152600401613e0d90615a56565b60405180910390fd5b805181602001fd5b63150b7a0260e01b7bffffffffffffffffffffffffffffffffffffffffffffffffffffffff1916817bffffffffffffffffffffffffffffffffffffffffffffffffffffffff191614915050613e73565b600190505b949350505050565b600073ffffffffffffffffffffffffffffffffffffffff168273ffffffffffffffffffffffffffffffffffffffff161415613eeb576040517f08c379a0000000000000000000000000000000000000000000000000000000008152600401613ee290615bd6565b60405180910390fd5b613ef48161362b565b15613f34576040517f08c379a0000000000000000000000000000000000000000000000000000000008152600401613f2b90615c42565b60405180910390fd5b613f4060008383613cdf565b6001600360008473ffffffffffffffffffffffffffffffffffffffff1673ffffffffffffffffffffffffffffffffffffffff1681526020019081526020016000206000828254613f90919061538d565b92505081905550816002600083815260200190815260200160002060006101000a81548173ffffffffffffffffffffffffffffffffffffffff021916908373ffffffffffffffffffffffffffffffffffffffff160217905550808273ffffffffffffffffffffffffffffffffffffffff16600073ffffffffffffffffffffffffffffffffffffffff167fddf252ad1be2c89b69c2b068fc378daa952ba7f163c4a11628f55a4df523b3ef60405160405180910390a45050565b600080823b905060008111915050919050565b508054600082559060005260206000209081019061407a9190614350565b50565b82805461408990615147565b90600052602060002090601f0160209004810192826140ab57600085556140f2565b82601f106140c457805160ff19168380011785556140f2565b828001600101855582156140f2579182015b828111156140f15782518255916020019190600101906140d6565b5b5090506140ff9190614350565b5090565b82805482825590600052602060002090810192821561417c579160200282015b8281111561417b5782518260006101000a81548173ffffffffffffffffffffffffffffffffffffffff021916908373ffffffffffffffffffffffffffffffffffffffff16021790555091602001919060010190614123565b5b5090506141899190614350565b5090565b8280548282559060005260206000209081019282156141c9579160200282015b828111156141c85782518255916020019190600101906141ad565b5b5090506141d69190614350565b5090565b50805460008255600f02906000526020600020908101906141fb919061436d565b50565b82805461420a90615147565b90600052602060002090601f01602090048101928261422c576000855561427a565b82601f1061423d578054855561427a565b8280016001018555821561427a57600052602060002091601f016020900482015b8281111561427957825482559160010191906001019061425e565b5b5090506142879190614350565b5090565b8280548282559060005260206000209081019282156142cc5760005260206000209182015b828111156142cb5782548255916001019190600101906142b0565b5b5090506142d99190614350565b5090565b82805482825590600052602060002090810192821561431e5760005260206000209182015b8281111561431d578254825591600101919060010190614302565b5b50905061432b9190614350565b5090565b508054600082559060005260206000209081019061434d9190614350565b50565b5b80821115614369576000816000905550600101614351565b5090565b5b808211156144385760008082016000905560018201600061438f919061443c565b60028201600061439f919061443c565b600382016000905560048201600090556005820160009055600682016000905560078201600090556008820160006143d7919061405c565b6009820160006101000a81549060ff0219169055600a820160009055600b82016000614403919061405c565b600c82016000614413919061432f565b600d820160006101000a81549060ff0219169055600e82016000905550600f0161436e565b5090565b50805461444890615147565b6000825580601f1061445a5750614479565b601f0160209004906000526020600020908101906144789190614350565b5b50565b6000604051905090565b600080fd5b600080fd5b60007fffffffff0000000000000000000000000000000000000000000000000000000082169050919050565b6144c581614490565b81146144d057600080fd5b50565b6000813590506144e2816144bc565b92915050565b6000602082840312156144fe576144fd614486565b5b600061450c848285016144d3565b91505092915050565b60008115159050919050565b61452a81614515565b82525050565b60006020820190506145456000830184614521565b92915050565b600081519050919050565b600082825260208201905092915050565b60005b8381101561458557808201518184015260208101905061456a565b83811115614594576000848401525b50505050565b6000601f19601f8301169050919050565b60006145b68261454b565b6145c08185614556565b93506145d0818560208601614567565b6145d98161459a565b840191505092915050565b600060208201905081810360008301526145fe81846145ab565b905092915050565b6000819050919050565b61461981614606565b811461462457600080fd5b50565b60008135905061463681614610565b92915050565b60006020828403121561465257614651614486565b5b600061466084828501614627565b91505092915050565b600073ffffffffffffffffffffffffffffffffffffffff82169050919050565b600061469482614669565b9050919050565b6146a481614689565b82525050565b60006020820190506146bf600083018461469b565b92915050565b6146ce81614689565b81146146d957600080fd5b50565b6000813590506146eb816146c5565b92915050565b6000806040838503121561470857614707614486565b5b6000614716858286016146dc565b925050602061472785828601614627565b9150509250929050565b60008060006060848603121561474a57614749614486565b5b600061475886828701614627565b935050602061476986828701614627565b925050604061477a86828701614627565b9150509250925092565b600080fd5b600080fd5b7f4e487b7100000000000000000000000000000000000000000000000000000000600052604160045260246000fd5b6147c68261459a565b810181811067ffffffffffffffff821117156147e5576147e461478e565b5b80604052505050565b60006147f861447c565b905061480482826147bd565b919050565b600067ffffffffffffffff8211156148245761482361478e565b5b61482d8261459a565b9050602081019050919050565b82818337600083830152505050565b600061485c61485784614809565b6147ee565b90508281526020810184848401111561487857614877614789565b5b61488384828561483a565b509392505050565b600082601f8301126148a05761489f614784565b5b81356148b0848260208601614849565b91505092915050565b60008060008060008060c087890312156148d6576148d5614486565b5b600087013567ffffffffffffffff8111156148f4576148f361448b565b5b61490089828a0161488b565b965050602087013567ffffffffffffffff8111156149215761492061448b565b5b61492d89828a0161488b565b955050604061493e89828a01614627565b945050606061494f89828a01614627565b935050608061496089828a01614627565b92505060a061497189828a01614627565b9150509295509295509295565b60008060006060848603121561499757614996614486565b5b60006149a5868287016146dc565b93505060206149b6868287016146dc565b92505060406149c786828701614627565b9150509250925092565b6149da81614606565b82525050565b6000610180820190506149f6600083018f6149d1565b8181036020830152614a08818e6145ab565b90508181036040830152614a1c818d6145ab565b9050614a2b606083018c6149d1565b614a38608083018b6149d1565b614a4560a083018a6149d1565b614a5260c08301896149d1565b614a5f60e08301886149d1565b614a6d610100830187614521565b614a7b6101208301866149d1565b614a89610140830185614521565b614a976101608301846149d1565b9d9c50505050505050505050505050565b600060208284031215614abe57614abd614486565b5b6000614acc848285016146dc565b91505092915050565b600081519050919050565b600082825260208201905092915050565b6000819050602082019050919050565b614b0a81614606565b82525050565b600082825260208201905092915050565b6000614b2c8261454b565b614b368185614b10565b9350614b46818560208601614567565b614b4f8161459a565b840191505092915050565b600081519050919050565b600082825260208201905092915050565b6000819050602082019050919050565b614b8f81614689565b82525050565b6000614ba18383614b86565b60208301905092915050565b6000602082019050919050565b6000614bc582614b5a565b614bcf8185614b65565b9350614bda83614b76565b8060005b83811015614c0b578151614bf28882614b95565b9750614bfd83614bad565b925050600181019050614bde565b5085935050505092915050565b614c2181614515565b82525050565b600081519050919050565b600082825260208201905092915050565b6000819050602082019050919050565b6000614c5f8383614b01565b60208301905092915050565b6000602082019050919050565b6000614c8382614c27565b614c8d8185614c32565b9350614c9883614c43565b8060005b83811015614cc9578151614cb08882614c53565b9750614cbb83614c6b565b925050600181019050614c9c565b5085935050505092915050565b60006101e083016000830151614cef6000860182614b01565b5060208301518482036020860152614d078282614b21565b91505060408301518482036040860152614d218282614b21565b9150506060830151614d366060860182614b01565b506080830151614d496080860182614b01565b5060a0830151614d5c60a0860182614b01565b5060c0830151614d6f60c0860182614b01565b5060e0830151614d8260e0860182614b01565b50610100830151848203610100860152614d9c8282614bba565b915050610120830151614db3610120860182614c18565b50610140830151614dc8610140860182614b01565b50610160830151848203610160860152614de28282614bba565b915050610180830151848203610180860152614dfe8282614c78565b9150506101a0830151614e156101a0860182614c18565b506101c0830151614e2a6101c0860182614b01565b508091505092915050565b6000614e418383614cd6565b905092915050565b6000602082019050919050565b6000614e6182614ad5565b614e6b8185614ae0565b935083602082028501614e7d85614af1565b8060005b85811015614eb95784840389528151614e9a8582614e35565b9450614ea583614e49565b925060208a01995050600181019050614e81565b50829750879550505050505092915050565b60006020820190508181036000830152614ee58184614e56565b905092915050565b6000602082019050614f0260008301846149d1565b92915050565b60008060408385031215614f1f57614f1e614486565b5b6000614f2d85828601614627565b9250506020614f3e858286016146dc565b9150509250929050565b614f5181614515565b8114614f5c57600080fd5b50565b600081359050614f6e81614f48565b92915050565b60008060408385031215614f8b57614f8a614486565b5b6000614f99858286016146dc565b9250506020614faa85828601614f5f565b9150509250929050565b600067ffffffffffffffff821115614fcf57614fce61478e565b5b614fd88261459a565b9050602081019050919050565b6000614ff8614ff384614fb4565b6147ee565b90508281526020810184848401111561501457615013614789565b5b61501f84828561483a565b509392505050565b600082601f83011261503c5761503b614784565b5b813561504c848260208601614fe5565b91505092915050565b6000806000806080858703121561506f5761506e614486565b5b600061507d878288016146dc565b945050602061508e878288016146dc565b935050604061509f87828801614627565b925050606085013567ffffffffffffffff8111156150c0576150bf61448b565b5b6150cc87828801615027565b91505092959194509250565b600080604083850312156150ef576150ee614486565b5b60006150fd858286016146dc565b925050602061510e858286016146dc565b9150509250929050565b7f4e487b7100000000000000000000000000000000000000000000000000000000600052602260045260246000fd5b6000600282049050600182168061515f57607f821691505b6020821081141561517357615172615118565b5b50919050565b7f4552433732313a20617070726f76656420717565727920666f72206e6f6e657860008201527f697374656e7420746f6b656e0000000000000000000000000000000000000000602082015250565b60006151d5602c83614556565b91506151e082615179565b604082019050919050565b60006020820190508181036000830152615204816151c8565b9050919050565b7f4552433732313a20617070726f76616c20746f2063757272656e74206f776e6560008201527f7200000000000000000000000000000000000000000000000000000000000000602082015250565b6000615267602183614556565b91506152728261520b565b604082019050919050565b600060208201905081810360008301526152968161525a565b9050919050565b7f4552433732313a20617070726f76652063616c6c6572206973206e6f74206f7760008201527f6e6572206e6f7220617070726f76656420666f7220616c6c0000000000000000602082015250565b60006152f9603883614556565b91506153048261529d565b604082019050919050565b60006020820190508181036000830152615328816152ec565b9050919050565b7f4e487b7100000000000000000000000000000000000000000000000000000000600052603260045260246000fd5b7f4e487b7100000000000000000000000000000000000000000000000000000000600052601160045260246000fd5b600061539882614606565b91506153a383614606565b9250827fffffffffffffffffffffffffffffffffffffffffffffffffffffffffffffffff038211156153d8576153d761535e565b5b828201905092915050565b7f4552433732313a207472616e736665722063616c6c6572206973206e6f74206f60008201527f776e6572206e6f7220617070726f766564000000000000000000000000000000602082015250565b600061543f603183614556565b915061544a826153e3565b604082019050919050565b6000602082019050818103600083015261546e81615432565b9050919050565b600061548082614606565b91507fffffffffffffffffffffffffffffffffffffffffffffffffffffffffffffffff8214156154b3576154b261535e565b5b600182019050919050565b7f4552433732313a206f776e657220717565727920666f72206e6f6e657869737460008201527f656e7420746f6b656e0000000000000000000000000000000000000000000000602082015250565b600061551a602983614556565b9150615525826154be565b604082019050919050565b600060208201905081810360008301526155498161550d565b9050919050565b7f4552433732313a2062616c616e636520717565727920666f7220746865207a6560008201527f726f206164647265737300000000000000000000000000000000000000000000602082015250565b60006155ac602a83614556565b91506155b782615550565b604082019050919050565b600060208201905081810360008301526155db8161559f565b9050919050565b60006155ed82614606565b91506155f883614606565b92508282101561560b5761560a61535e565b5b828203905092915050565b600061562182614606565b915061562c83614606565b9250817fffffffffffffffffffffffffffffffffffffffffffffffffffffffffffffffff04831182151516156156655761566461535e565b5b828202905092915050565b7f4e487b7100000000000000000000000000000000000000000000000000000000600052601260045260246000fd5b60006156aa82614606565b91506156b583614606565b9250826156c5576156c4615670565b5b828204905092915050565b7f4552433732313a20617070726f766520746f2063616c6c657200000000000000600082015250565b6000615706601983614556565b9150615711826156d0565b602082019050919050565b60006020820190508181036000830152615735816156f9565b9050919050565b7f4552433732314d657461646174613a2055524920717565727920666f72206e6f60008201527f6e6578697374656e7420746f6b656e0000000000000000000000000000000000602082015250565b6000615798602f83614556565b91506157a38261573c565b604082019050919050565b600060208201905081810360008301526157c78161578b565b9050919050565b600081905092915050565b60006157e48261454b565b6157ee81856157ce565b93506157fe818560208601614567565b80840191505092915050565b600061581682856157d9565b915061582282846157d9565b91508190509392505050565b7f4552433732313a206f70657261746f7220717565727920666f72206e6f6e657860008201527f697374656e7420746f6b656e0000000000000000000000000000000000000000602082015250565b600061588a602c83614556565b91506158958261582e565b604082019050919050565b600060208201905081810360008301526158b98161587d565b9050919050565b7f4552433732313a207472616e73666572206f6620746f6b656e2074686174206960008201527f73206e6f74206f776e0000000000000000000000000000000000000000000000602082015250565b600061591c602983614556565b9150615927826158c0565b604082019050919050565b6000602082019050818103600083015261594b8161590f565b9050919050565b7f4552433732313a207472616e7366657220746f20746865207a65726f2061646460008201527f7265737300000000000000000000000000000000000000000000000000000000602082015250565b60006159ae602483614556565b91506159b982615952565b604082019050919050565b600060208201905081810360008301526159dd816159a1565b9050919050565b7f4552433732313a207472616e7366657220746f206e6f6e20455243373231526560008201527f63656976657220696d706c656d656e7465720000000000000000000000000000602082015250565b6000615a40603283614556565b9150615a4b826159e4565b604082019050919050565b60006020820190508181036000830152615a6f81615a33565b9050919050565b6000615a8182614606565b9150615a8c83614606565b925082615a9c57615a9b615670565b5b828206905092915050565b600081519050919050565b600082825260208201905092915050565b6000615ace82615aa7565b615ad88185615ab2565b9350615ae8818560208601614567565b615af18161459a565b840191505092915050565b6000608082019050615b11600083018761469b565b615b1e602083018661469b565b615b2b60408301856149d1565b8181036060830152615b3d8184615ac3565b905095945050505050565b600081519050615b57816144bc565b92915050565b600060208284031215615b7357615b72614486565b5b6000615b8184828501615b48565b91505092915050565b7f4552433732313a206d696e7420746f20746865207a65726f2061646472657373600082015250565b6000615bc0602083614556565b9150615bcb82615b8a565b602082019050919050565b60006020820190508181036000830152615bef81615bb3565b9050919050565b7f4552433732313a20746f6b656e20616c7265616479206d696e74656400000000600082015250565b6000615c2c601c83614556565b9150615c3782615bf6565b602082019050919050565b60006020820190508181036000830152615c5b81615c1f565b905091905056fea264697066735822122071fffccdc82553e5aa4456d9b0e7d48437f06d5f27c8a2e698125bd35653172164736f6c63430008090033",
  "immutableReferences": {},
  "source": "pragma solidity 0.8.9;\r\n\r\nimport '../node_modules/@openzeppelin/contracts/token/ERC721/ERC721.sol';\r\n\r\ncontract auction is ERC721 {\r\n    \r\n    struct Character {\r\n        uint id;\r\n        string name;\r\n        string imgurl;\r\n        uint magic;\r\n        uint strength;\r\n        uint intelligence;\r\n        uint luck;\r\n        uint level;\r\n        address[] ownerhistory;\r\n        bool onsale;\r\n        uint startprice;\r\n        address [] bidderhistory;\r\n        uint256[] bidpricehistory;\r\n        bool setaside;\r\n        uint endtime;\r\n        \r\n    }\r\n\r\n    Character[] public characters;\r\n    Character[] public result;\r\n    address[] public temp;\r\n    address public gameOwner;\r\n\r\n    constructor() ERC721(\"GameItem\", \"ITM\") public {\r\n        gameOwner = msg.sender;\r\n    }\r\n\r\n    function createNewCharacter(string memory _name,string memory _imgurl,uint _magic,uint _strength,uint _intelligence,uint _luck) payable public {\r\n        require(msg.value == 0.1 ether);\r\n        uint id = characters.length;\r\n        delete temp;\r\n\r\n        temp.push(msg.sender);\r\n        address  [] memory temp3;\r\n        uint [] memory temp2;\r\n        characters.push(Character(id,_name,_imgurl,_magic,_strength,_intelligence,_luck, 1,temp,false,0,temp3,temp2,false,block.timestamp));\r\n        _safeMint(msg.sender, id);\r\n    }\r\n\r\n    function getCharacter(address _sender) public returns(Character[] memory){\r\n        delete result;\r\n        for (uint i = 0; i < characters.length; i++) {\r\n            if(ownerOf(i)==_sender){\r\n                result.push(characters[i]);\r\n            }\r\n        }\r\n        return result;\r\n    }\r\n    function getAuction() public returns(Character[] memory){\r\n        delete result;\r\n        for (uint256 i = 0; i < characters.length; i++) {\r\n            if(characters[i].onsale==true){\r\n                result.push(characters[i]);\r\n            }\r\n        }\r\n        return result;\r\n    }\r\n    function createNewAuction(uint _id,uint _sec,uint256 _startprice) payable public{\r\n        require(msg.value == 0.1 ether);\r\n        // uint money=1*10/100;\r\n        // payable(gameOwner).transfer(10/100);\r\n        require(msg.sender==ownerOf(_id));\r\n        require(characters[_id].onsale==false);\r\n        require(characters[_id].setaside==false);\r\n        characters[_id].onsale=true;\r\n        characters[_id].endtime=block.timestamp+_sec;\r\n        characters[_id].startprice=_startprice;\r\n    }\r\n\r\n    function refreshAllAuction() payable public returns(uint256){\r\n        checkAllOverTime(block.timestamp);\r\n        for(uint i=0;i<characters.length;i++){\r\n            if(characters[i].onsale==true){\r\n                if(characters[i].endtime<=block.timestamp){\r\n                    characters[i].onsale=false;\r\n                    characters[i].setaside=true;\r\n                }\r\n            }\r\n                    \r\n                \r\n        }\r\n        return block.timestamp;\r\n    }\r\n    function checkAllOverTime(uint timestamp)payable public{\r\n        for(uint i=0;i<characters.length;i++){\r\n            if(characters[i].setaside==true){\r\n                if(timestamp>=characters[i].endtime+10*24*3600){\r\n                    uint index=characters[i].bidderhistory.length;\r\n                    if(index==0){\r\n                        delete characters[i].bidderhistory;\r\n                        delete characters[i].bidpricehistory;\r\n                        characters[i].setaside=false;\r\n                    }\r\n                    else{\r\n                        index=index-1;\r\n                        address buyer=characters[i].bidderhistory[index];\r\n                        approve(buyer,i);\r\n                        uint256 money=characters[i].bidpricehistory[index];\r\n                        address payable owner=payable(msg.sender);\r\n                        owner.transfer(money);\r\n                        delete characters[i].bidderhistory;\r\n                        delete characters[i].bidpricehistory;\r\n                        characters[i].setaside=false;\r\n                    }\r\n                }\r\n            }\r\n        }\r\n    }\r\n    function ownerconfirm(uint _id)payable public{\r\n        require(characters[_id].setaside==true);\r\n\r\n        require(msg.sender==ownerOf(_id));\r\n        uint index=characters[_id].bidderhistory.length;\r\n        if(index==0){\r\n            delete characters[_id].bidderhistory;\r\n            delete characters[_id].bidpricehistory;\r\n            characters[_id].setaside=false;\r\n        }\r\n        else{\r\n            index=index-1;\r\n            require(index>=0);\r\n            address buyer=characters[_id].bidderhistory[index];\r\n            approve(buyer,_id);\r\n            uint256 money=characters[_id].bidpricehistory[index];\r\n            address payable owner=payable(msg.sender);\r\n            uint256 money1=money*90/10000;\r\n            uint256 money2=(money-money1)*1/100;\r\n            owner.transfer(money1);\r\n            payable(gameOwner).transfer(money2);\r\n        }\r\n    }\r\n    function buyerconfirm(uint _id)payable public{\r\n        require(characters[_id].setaside==true);\r\n        require(msg.sender !=ownerOf(_id));\r\n        transferFrom(ownerOf(_id),msg.sender, _id);\r\n        characters[_id].setaside=false;\r\n        delete characters[_id].bidpricehistory;\r\n        characters[_id].ownerhistory.push(msg.sender);\r\n        delete characters[_id].bidderhistory;\r\n    }\r\n    function bid(uint256 _id, address sender)payable public{\r\n        require(msg.sender !=ownerOf(_id));\r\n        require(characters[_id].onsale=true);\r\n        // uint index=characters[_id].bidpricehistory.length;\r\n        // uint xx;\r\n        // index =index -1;\r\n        // if(index>=0){\r\n        //     xx=characters[_id].bidpricehistory[index];\r\n        // }\r\n        // else{\r\n        //     xx=characters[_id].startprice;\r\n        // }\r\n        // require(100*msg.value>xx*1000000000000000000);\r\n        if(characters[_id].bidderhistory.length==0){\r\n            characters[_id].bidderhistory.push(msg.sender);\r\n            characters[_id].bidpricehistory.push(100*msg.value/1000000000000000000);\r\n        }\r\n        else{\r\n            uint index=characters[_id].bidderhistory.length;\r\n            index=index-1;\r\n            payable(characters[_id].bidderhistory[index]).transfer(characters[_id].bidpricehistory[index]);\r\n            characters[_id].bidderhistory.push(msg.sender);\r\n            characters[_id].bidpricehistory.push(100*msg.value/1000000000000000000);\r\n        }\r\n    }\r\n\r\n    function getbid(address _sender) public returns(Character[] memory){\r\n        delete result;\r\n        for(uint i=0;i<characters.length;i++){\r\n            if(characters[i].onsale==true||characters[i].setaside==true)\r\n            for(uint j=0;j<characters[i].bidderhistory.length;j++){\r\n                if(characters[i].bidderhistory[j]==_sender){\r\n                    result.push(characters[i]);\r\n                    break;\r\n                }\r\n            }\r\n        }\r\n        return result;\r\n    }\r\n}",
  "sourcePath": "E:\\\\\\\\NFT-Characters-Auction-main\\NFT-Characters-Auction-main\\contract\\contracts\\auction.sol",
  "compiler": {
    "name": "solc",
    "version": "0.8.9+commit.e5eed63a.Emscripten.clang"
  },
  "schemaVersion": "3.4.3",
  "updatedAt": "2021-10-30T03:16:55.076Z",
  "networkType": "ethereum",
  "devdoc": {
    "kind": "dev",
    "methods": {
      "approve(address,uint256)": {
        "details": "See {IERC721-approve}."
      },
      "balanceOf(address)": {
        "details": "See {IERC721-balanceOf}."
      },
      "getApproved(uint256)": {
        "details": "See {IERC721-getApproved}."
      },
      "isApprovedForAll(address,address)": {
        "details": "See {IERC721-isApprovedForAll}."
      },
      "name()": {
        "details": "See {IERC721Metadata-name}."
      },
      "ownerOf(uint256)": {
        "details": "See {IERC721-ownerOf}."
      },
      "safeTransferFrom(address,address,uint256)": {
        "details": "See {IERC721-safeTransferFrom}."
      },
      "safeTransferFrom(address,address,uint256,bytes)": {
        "details": "See {IERC721-safeTransferFrom}."
      },
      "setApprovalForAll(address,bool)": {
        "details": "See {IERC721-setApprovalForAll}."
      },
      "supportsInterface(bytes4)": {
        "details": "See {IERC165-supportsInterface}."
      },
      "symbol()": {
        "details": "See {IERC721Metadata-symbol}."
      },
      "tokenURI(uint256)": {
        "details": "See {IERC721Metadata-tokenURI}."
      },
      "transferFrom(address,address,uint256)": {
        "details": "See {IERC721-transferFrom}."
      }
    },
    "version": 1
  },
  "userdoc": {
    "kind": "user",
    "methods": {},
    "version": 1
  }
}