{
  "contractName": "Lottery",
  "abi": [
    {
      "inputs": [],
      "stateMutability": "nonpayable",
      "type": "constructor"
    },
    {
      "inputs": [],
      "name": "manager",
      "outputs": [
        {
          "internalType": "address payable",
          "name": "",
          "type": "address"
        }
      ],
      "stateMutability": "view",
      "type": "function",
      "constant": true
    },
    {
      "inputs": [
        {
          "internalType": "uint256",
          "name": "",
          "type": "uint256"
        }
      ],
      "name": "players",
      "outputs": [
        {
          "internalType": "address payable",
          "name": "",
          "type": "address"
        }
      ],
      "stateMutability": "view",
      "type": "function",
      "constant": true
    },
    {
      "inputs": [],
      "name": "round",
      "outputs": [
        {
          "internalType": "uint256",
          "name": "",
          "type": "uint256"
        }
      ],
      "stateMutability": "view",
      "type": "function",
      "constant": true
    },
    {
      "inputs": [],
      "name": "winner",
      "outputs": [
        {
          "internalType": "address payable",
          "name": "",
          "type": "address"
        }
      ],
      "stateMutability": "view",
      "type": "function",
      "constant": true
    },
    {
      "inputs": [],
      "name": "play",
      "outputs": [],
      "stateMutability": "payable",
      "type": "function",
      "payable": true
    },
    {
      "inputs": [],
      "name": "getPlayersCount",
      "outputs": [
        {
          "internalType": "uint256",
          "name": "",
          "type": "uint256"
        }
      ],
      "stateMutability": "view",
      "type": "function",
      "constant": true
    },
    {
      "inputs": [],
      "name": "draw",
      "outputs": [],
      "stateMutability": "nonpayable",
      "type": "function"
    },
    {
      "inputs": [],
      "name": "refund",
      "outputs": [],
      "stateMutability": "nonpayable",
      "type": "function"
    },
    {
      "inputs": [],
      "name": "getPlayers",
      "outputs": [
        {
          "internalType": "address payable[]",
          "name": "",
          "type": "address[]"
        }
      ],
      "stateMutability": "view",
      "type": "function",
      "constant": true
    },
    {
      "inputs": [],
      "name": "getBalance",
      "outputs": [
        {
          "internalType": "uint256",
          "name": "",
          "type": "uint256"
        }
      ],
      "stateMutability": "view",
      "type": "function",
      "constant": true
    }
  ],
  "bytecode": "0x608060405234801561001057600080fd5b50336000806101000a81548173ffffffffffffffffffffffffffffffffffffffff021916908373ffffffffffffffffffffffffffffffffffffffff160217905550610ba7806100606000396000f3fe6080604052600436106100915760003560e01c80638b5b9ccc116100595780638b5b9ccc1461014557806393e84cd914610170578063a76594bf1461017a578063dfbf53ae146101a5578063f71d96cb146101d057610091565b80630eecae211461009657806312065fe0146100ad578063146ca531146100d8578063481c6a7514610103578063590e1ae31461012e575b600080fd5b3480156100a257600080fd5b506100ab61020d565b005b3480156100b957600080fd5b506100c2610465565b6040516100cf9190610798565b60405180910390f35b3480156100e457600080fd5b506100ed61046d565b6040516100fa9190610798565b60405180910390f35b34801561010f57600080fd5b50610118610473565b60405161012591906107f4565b60405180910390f35b34801561013a57600080fd5b50610143610497565b005b34801561015157600080fd5b5061015a6105c8565b60405161016791906108cd565b60405180910390f35b610178610656565b005b34801561018657600080fd5b5061018f6106cf565b60405161019c9190610798565b60405180910390f35b3480156101b157600080fd5b506101ba6106dc565b6040516101c791906107f4565b60405180910390f35b3480156101dc57600080fd5b506101f760048036038101906101f29190610920565b610702565b60405161020491906107f4565b60405180910390f35b60008054906101000a900473ffffffffffffffffffffffffffffffffffffffff1673ffffffffffffffffffffffffffffffffffffffff163373ffffffffffffffffffffffffffffffffffffffff161461026557600080fd5b600042446001805490506040516020016102819392919061096e565b604051602081830303815290604052905060008180519060200120905060008160001c90506000600180549050826102b991906109da565b9050600181815481106102cf576102ce610a0b565b5b9060005260206000200160009054906101000a900473ffffffffffffffffffffffffffffffffffffffff16600360006101000a81548173ffffffffffffffffffffffffffffffffffffffff021916908373ffffffffffffffffffffffffffffffffffffffff16021790555060006064605a4761034b9190610a69565b6103559190610ac3565b9050600081476103659190610af4565b9050600360009054906101000a900473ffffffffffffffffffffffffffffffffffffffff1673ffffffffffffffffffffffffffffffffffffffff166108fc839081150290604051600060405180830381858888f193505050501580156103cf573d6000803e3d6000fd5b5060008054906101000a900473ffffffffffffffffffffffffffffffffffffffff1673ffffffffffffffffffffffffffffffffffffffff166108fc829081150290604051600060405180830381858888f19350505050158015610436573d6000803e3d6000fd5b506002600081548092919061044a90610b28565b91905055506001600061045d9190610741565b505050505050565b600047905090565b60025481565b60008054906101000a900473ffffffffffffffffffffffffffffffffffffffff1681565b60008054906101000a900473ffffffffffffffffffffffffffffffffffffffff1673ffffffffffffffffffffffffffffffffffffffff163373ffffffffffffffffffffffffffffffffffffffff16146104ef57600080fd5b60005b60018054905081101561059f576001818154811061051357610512610a0b565b5b9060005260206000200160009054906101000a900473ffffffffffffffffffffffffffffffffffffffff1673ffffffffffffffffffffffffffffffffffffffff166108fc67016345785d8a00009081150290604051600060405180830381858888f1935050505015801561058b573d6000803e3d6000fd5b50808061059790610b28565b9150506104f2565b50600260008154809291906105b390610b28565b9190505550600160006105c69190610741565b565b6060600180548060200260200160405190810160405280929190818152602001828054801561064c57602002820191906000526020600020905b8160009054906101000a900473ffffffffffffffffffffffffffffffffffffffff1673ffffffffffffffffffffffffffffffffffffffff1681526020019060010190808311610602575b5050505050905090565b67016345785d8a0000341461066a57600080fd5b6001339080600181540180825580915050600190039060005260206000200160009091909190916101000a81548173ffffffffffffffffffffffffffffffffffffffff021916908373ffffffffffffffffffffffffffffffffffffffff160217905550565b6000600180549050905090565b600360009054906101000a900473ffffffffffffffffffffffffffffffffffffffff1681565b6001818154811061071257600080fd5b906000526020600020016000915054906101000a900473ffffffffffffffffffffffffffffffffffffffff1681565b508054600082559060005260206000209081019061075f9190610762565b50565b5b8082111561077b576000816000905550600101610763565b5090565b6000819050919050565b6107928161077f565b82525050565b60006020820190506107ad6000830184610789565b92915050565b600073ffffffffffffffffffffffffffffffffffffffff82169050919050565b60006107de826107b3565b9050919050565b6107ee816107d3565b82525050565b600060208201905061080960008301846107e5565b92915050565b600081519050919050565b600082825260208201905092915050565b6000819050602082019050919050565b610844816107d3565b82525050565b6000610856838361083b565b60208301905092915050565b6000602082019050919050565b600061087a8261080f565b610884818561081a565b935061088f8361082b565b8060005b838110156108c05781516108a7888261084a565b97506108b283610862565b925050600181019050610893565b5085935050505092915050565b600060208201905081810360008301526108e7818461086f565b905092915050565b600080fd5b6108fd8161077f565b811461090857600080fd5b50565b60008135905061091a816108f4565b92915050565b600060208284031215610936576109356108ef565b5b60006109448482850161090b565b91505092915050565b6000819050919050565b6109686109638261077f565b61094d565b82525050565b600061097a8286610957565b60208201915061098a8285610957565b60208201915061099a8284610957565b602082019150819050949350505050565b7f4e487b7100000000000000000000000000000000000000000000000000000000600052601260045260246000fd5b60006109e58261077f565b91506109f08361077f565b925082610a00576109ff6109ab565b5b828206905092915050565b7f4e487b7100000000000000000000000000000000000000000000000000000000600052603260045260246000fd5b7f4e487b7100000000000000000000000000000000000000000000000000000000600052601160045260246000fd5b6000610a748261077f565b9150610a7f8361077f565b9250817fffffffffffffffffffffffffffffffffffffffffffffffffffffffffffffffff0483118215151615610ab857610ab7610a3a565b5b828202905092915050565b6000610ace8261077f565b9150610ad98361077f565b925082610ae957610ae86109ab565b5b828204905092915050565b6000610aff8261077f565b9150610b0a8361077f565b925082821015610b1d57610b1c610a3a565b5b828203905092915050565b6000610b338261077f565b91507fffffffffffffffffffffffffffffffffffffffffffffffffffffffffffffffff821415610b6657610b65610a3a565b5b60018201905091905056fea26469706673582212201037f2426201d704816ce3dd09e0e978cce175eaaba4a14215208beb32909de064736f6c63430008090033",
  "immutableReferences": {},
  "source": "// SPDX-License-Identifier: GPL3.0\npragma solidity 0.8.9;\n\ncontract Lottery{\n    address payable public manager;\n    address payable[] public players;\n    uint256 public round;\n    address payable public winner;\n\n    constructor() public {\n        manager = payable(msg.sender);\n    }\n\n    //1.1ETH\n    function play() public payable {\n        require(msg.value == 0.1 ether);\n        //2.\n        players.push(payable(msg.sender));\n    }\n\n    modifier onlyManager{\n        require(msg.sender == manager);\n        _;\n    }\n\n    function getPlayersCount() public view returns (uint256){\n        return players.length;\n    }\n\n    function draw() public onlyManager {\n        //\n        bytes memory v1 = abi.encodePacked(block.timestamp, block.difficulty, players.length);\n        bytes32 v2 = keccak256(v1);\n        uint256 v3 = uint256(v2);\n        uint256 index = v3 % players.length;\n        //\n        winner = players[index];\n        //\n        uint256 money = address(this).balance * 90 / 100;\n        uint256 money2 = address(this).balance - money;\n        winner.transfer(money);\n        manager.transfer(money2);\n        //\n        round++;\n        delete players;\n    }\n\n    function refund() public onlyManager {\n        for (uint256 i = 0; i < players.length; i++) {\n            players[i].transfer(0.1 ether);\n        }\n        round++;\n        delete players;\n    }\n    \n    function getPlayers() public view returns(address payable[] memory){\n        return players;\n    }\n\n    function getBalance() public view returns (uint256){\n        return address(this).balance;\n    }\n\n}",
  "sourcePath": "D:\\Desktop\\\\intelligence protocol\\contracts\\Lottery.sol",
  "compiler": {
    "name": "solc",
    "version": "0.8.9+commit.e5eed63a.Emscripten.clang"
  },
  "schemaVersion": "3.4.3",
  "updatedAt": "2021-10-30T03:16:52.064Z",
  "networkType": "ethereum",
  "devdoc": {
    "kind": "dev",
    "methods": {},
    "version": 1
  },
  "userdoc": {
    "kind": "user",
    "methods": {},
    "version": 1
  }
}